:020000040800F2
:1000000000280020A5150008BD120008C512000830
:10001000CD120008D5120008DD1200080000000013
:10002000000000000000000000000000E5120008D1
:10003000F112000800000000FD120008091300087A
:10004000ED150008ED150008ED150008ED15000888
:10005000ED150008ED150008ED150008ED15000878
:10006000ED150008ED150008ED150008ED15000868
:10007000ED150008ED150008ED150008ED15000858
:10008000ED150008ED150008ED150008ED15000848
:10009000ED150008ED150008ED150008ED15000838
:1000A000ED150008ED150008ED150008ED15000828
:1000B00015130008ED15000800000000ED150008FC
:1000C000ED1500080000000000000000ED1500081C
:1000D00000000000ED150008ED150008000000000C
:1000E000ED150008ED150008ED15000800000000F2
:1000F0000000000000000000000000000000000000
:0C01000000000000000000005FF808F1A3
:10010C0010B5054C237833B9044B13B10448AFF345
:10011C0000800123237010BD3C0000200000000073
:10012C00242C000808B5034B1BB103490348AFF35B
:10013C00008008BD0000000040000020242C0008B6
:10014C0080B483B000AF7860094A7B6852F82330E2
:10015C00012B06D1064A7B68002142F823100123AB
:10016C0000E0002318460C37BD4680BC704700BF2A
:10017C005800002080B483B000AF7860044A7B68DC
:10018C00012142F8231000BF0C37BD4680BC7047DC
:10019C005800002080B582B000AF00237B6084E063
:1001AC00464A7B6852F8232045497B6841F8232056
:1001BC00444A7B6852F8232040497B6841F823204D
:1001CC007B68002B0AD101213F4801F0F7FC034664
:1001DC0019463C4A7B6842F823101AE07B68012BD5
:1001EC000AD10221384801F0E9FC03461946354A88
:1001FC007B6842F823100CE07B68022B09D10421A8
:10020C00314801F0DBFC034619462E4A7B6842F864
:10021C0023102B4A7B6852F8232028497B6851F81D
:10022C0023309A423ED1254A7B6852F82320254937
:10023C007B6851F823309A4234D1224A7B6852F8B9
:10024C00232022497B6851F823309A4216D01D4A4C
:10025C007B6852F823201D497B6841F82320194AFA
:10026C007B6852F82330002B1CD1194A7B68C821BB
:10027C0042F823107868FFF77DFF13E0144A7B687F
:10028C0052F823305A1E12497B6841F82320104A39
:10029C007B6852F82330002B04D10C4A7B68012177
:1002AC0042F823107B6801337B607B68022B7FF75D
:1002BC0077AF00BF00BF0837BD4680BD18000020D7
:1002CC000C00002000000020000C01402400002045
:1002DC006400002080B400AF0A4B02221A600A4B63
:1002EC0003221A60094B05221A60084B1B68084A46
:1002FC001360054B1B68074A136000BFBD4680BCEA
:10030C00704700BF780000207C0000208000002097
:10031C00840000208800002080B582B000AF786097
:10032C007B68002B29D100224FF40071CF4801F0DB
:10033C005CFC00224FF48061CC4801F056FC00229A
:10034C004FF40061C94801F050FC00224FF4805179
:10035C00C64801F04AFC00224FF40051C34801F09A
:10036C0044FC00224FF48041C04801F03EFC0122C5
:10037C004FF40041BD4801F038FC7B68012B29D1BA
:10038C0001224FF40071B94801F02FFC00224FF408
:10039C008061B64801F029FC00224FF40061B3489B
:1003AC0001F023FC01224FF48051B04801F01DFCF8
:1003BC0001224FF40051AD4801F017FC01224FF41B
:1003CC008041AA4801F011FC01224FF40041A748DA
:1003DC0001F00BFC7B68022B29D100224FF4007139
:1003EC00A24801F002FC00224FF480619F4801F00A
:1003FC00FCFB01224FF400619C4801F0F6FB00224B
:10040C004FF48051994801F0F0FB00224FF4005159
:10041C00964801F0EAFB01224FF48041934801F029
:10042C00E4FB00224FF40041904801F0DEFB7B68B6
:10043C00032B29D100224FF400718C4801F0D5FB1D
:10044C0000224FF48061894801F0CFFB00224FF469
:10045C000061864801F0C9FB00224FF480518348AB
:10046C0001F0C3FB01224FF40051804801F0BDFBA9
:10047C0001224FF480417D4801F0B7FB00224FF47C
:10048C0000417A4801F0B1FB7B68042B29D1012291
:10049C004FF40071754801F0A8FB00224FF4806105
:1004AC00724801F0A2FB00224FF400616F4801F08A
:1004BC009CFB01224FF480516C4801F096FB012209
:1004CC004FF40051694801F090FB00224FF4804139
:1004DC00664801F08AFB00224FF40041634801F0AA
:1004EC0084FB7B68052B29D100224FF400715F48F7
:1004FC0001F07BFB01224FF480615C4801F075FB3D
:10050C0000224FF40061594801F06FFB00224FF4B8
:10051C008051564801F069FB01224FF400515348B9
:10052C0001F063FB00224FF48041504801F05DFB69
:10053C0000224FF400414D4801F057FB7B68062B1D
:10054C0029D100224FF40071484801F04EFB0122E2
:10055C004FF48061454801F048FB00224FF40061E4
:10056C00424801F042FB00224FF480513F4801F019
:10057C003CFB00224FF400513C4801F036FB0022BA
:10058C004FF48041394801F030FB00224FF4004118
:10059C00364801F02AFB7B68072B29D100224FF447
:1005AC000071324801F021FB00224FF480612F488A
:1005BC0001F01BFB00224FF400612C4801F015FBED
:1005CC0001224FF48051294801F00FFB01224FF416
:1005DC000051264801F009FB01224FF480412348C9
:1005EC0001F003FB01224FF40041204801F0FDFA19
:1005FC007B68082B29D100224FF400711B4801F0B5
:10060C00F4FA00224FF48061184801F0EEFA00224F
:10061C004FF40061154801F0E8FA00224FF48051C4
:10062C00124801F0E2FA00224FF400510F4801F099
:10063C00DCFA00224FF480410C4801F0D6FA00227B
:10064C004FF40041094801F0D0FA7B68092B2CD1FA
:10065C0000224FF40071054801F0C7FA00224FF454
:10066C008061024801F0C1FA002201E0000801405B
:10067C004FF400610F4801F0B8FA00224FF480519A
:10068C000C4801F0B2FA01224FF40051094801F074
:10069C00ACFA00224FF48041064801F0A6FA002281
:1006AC004FF40041034801F0A0FA00BF0837BD46E3
:1006BC0080BD00BF0008014080B582B000AF7860FB
:1006CC007B68002B24D100220821C74801F08DFA49
:1006DC0000221021C44801F088FA00222021C248CF
:1006EC0001F083FA00224021BF4801F07EFA00227B
:1006FC008021BD4801F079FA00224FF48071BA488C
:10070C0001F073FA01224FF40071B74801F06DFA51
:10071C007B68012B24D101220821B34801F065FA32
:10072C0000221021B04801F060FA00222021AE48CE
:10073C0001F05BFA01224021AB4801F056FA01228C
:10074C008021A94801F051FA01224FF48071A6488A
:10075C0001F04BFA01224FF40071A34801F045FA65
:10076C007B68022B24D1002208219F4801F03DFA1E
:10077C00002210219C4801F038FA012220219A48CD
:10078C0001F033FA00224021974801F02EFA0022A2
:10079C008021954801F029FA01224FF4807192488A
:1007AC0001F023FA00224FF400718F4801F01DFA7A
:1007BC007B68032B24D1002208218B4801F015FA09
:1007CC0000221021884801F010FA002220218648CE
:1007DC0001F00BFA00224021834801F006FA0122B5
:1007EC008021814801F001FA01224FF480717E488A
:1007FC0001F0FBF900224FF400717B4801F0F5F990
:10080C007B68042B24D101220821774801F0EDF9F3
:10081C0000221021744801F0E8F9002220217248CE
:10082C0001F0E3F9012240216F4801F0DEF90122C9
:10083C0080216D4801F0D9F900224FF480716A488B
:10084C0001F0D3F900224FF40071674801F0CDF9A3
:10085C007B68052B24D100220821634801F0C5F9DF
:10086C0001221021604801F0C0F9002220215E48CD
:10087C0001F0BBF9002240215B4801F0B6F90122DE
:10088C008021594801F0B1F900224FF4807156488B
:10089C0001F0ABF900224FF40071534801F0A5F9B7
:1008AC007B68062B24D1002208214F4801F09DF9CA
:1008BC00012210214C4801F098F9002220214A48CD
:1008CC0001F093F900224021474801F08EF90022F3
:1008DC008021454801F089F900224FF4807142488B
:1008EC0001F083F900224FF400713F4801F07DF9CB
:1008FC007B68072B24D1002208213B4801F075F9B5
:10090C0000221021384801F070F9002220213648CD
:10091C0001F06BF901224021334801F066F9012204
:10092C008021314801F061F901224FF480712E4889
:10093C0001F05BF901224FF400712B4801F055F9DD
:10094C007B68082B24D100220821274801F04DF99F
:10095C0000221021244801F048F9002220212248CD
:10096C0001F043F9002240211F4801F03EF900221A
:10097C0080211D4801F039F900224FF480711A488A
:10098C0001F033F900224FF40071174801F02DF9F2
:10099C007B68092B24D100220821134801F025F98A
:1009AC0000221021104801F020F9002220210E48CD
:1009BC0001F01BF9002240210B4801F016F901222D
:1009CC008021094801F011F900224FF4807106488A
:1009DC0001F00BF900224FF40071034801F005F906
:1009EC0000BF0837BD4680BD000C014080B582B009
:1009FC0000AF786039607B686F2B03D07B68702BFD
:100A0C0017D032E000224FF480411A4801F0EDF883
:100A1C0001224FF40041174801F0E7F83B68164AF1
:100A2C0082FB03129210DB17D31A1846FFF774FCE3
:100A3C001BE001224FF480410E4801F0D6F8002251
:100A4C004FF400410B4801F0D0F83A680A4B83FB95
:100A5C0002139910D317C91A0B469B000B445B0069
:100A6C00D11A0846FFF758FC00BF00BF0837BD4637
:100A7C0080BD00BF000C01406766666680B582B021
:100A8C0000AF786039607B68DE2B03D07B68DF2B8E
:100A9C0017D032E000224FF480511A4801F0A5F82B
:100AAC0001224FF40051174801F09FF83B68164A99
:100ABC0082FB03129210DB17D31A1846FFF7FCFDCA
:100ACC001BE001224FF480510E4801F08EF80022F9
:100ADC004FF400510B4801F088F83A680A4B83FB3D
:100AEC0002139910D317C91A0B469B000B445B00D9
:100AFC00D11A0846FFF7E0FD00BF00BF0837BD461E
:100B0C0080BD00BF000C01406766666680B500AF13
:100B1C00064B1B6819466F20FFF768FF044B1B68D8
:100B2C001946DE20FFF7AAFF00BF80BD840000201D
:100B3C008800002080B500AF064B1B68194670205A
:100B4C00FFF754FF044B1B681946DF20FFF796FF95
:100B5C0000BF80BD840000208800002080B500AF5D
:100B6C0000F040FD00F00EF800F094F800F046F8AC
:100B7C00034801F099FCFFF7ADFB00F0FFF8FCE730
:100B8C008C00002080B590B000AF07F1180328222C
:100B9C000021184602F014F83B1D00221A605A601E
:100BAC009A60DA601A610223BB610123BB621023D5
:100BBC00FB6200237B6307F11803184601F046F82B
:100BCC000346002B01D000F0D3F80F237B600023E9
:100BDC00BB600023FB6000233B6100237B613B1D5A
:100BEC000021184601F0B4FA0346002B01D000F0A6
:100BFC00BFF800BF4037BD4680BD000080B586B051
:100C0C0000AF07F1080300221A605A609A60DA609C
:100C1C003B4600221A605A601D4B4FF080421A600E
:100C2C001B4B41F63F725A60194B00229A60184BCD
:100C3C000922DA60164B00221A61154B00229A61C8
:100C4C00134801F0E1FB0346002B01D000F090F8B3
:100C5C004FF48053BB6007F1080319460C4801F0B0
:100C6C005FFD0346002B01D000F082F800233B60AF
:100C7C0000237B603B461946054801F037FF0346CD
:100C8C00002B01D000F074F800BF1837BD4680BDB2
:100C9C008C00002080B586B000AF07F1080300225D
:100CAC001A605A609A60DA60284B9B69274A43F0B5
:100CBC0004039361254B9B6903F004037B607B6801
:100CCC00224B9B69214A43F0080393611F4B9B699C
:100CDC0003F008033B603B6800224FF63F611C4861
:100CEC0000F083FF00224FF2F8311A4800F07DFF2C
:100CFC004FF63F63BB600123FB6000233B61022383
:100D0C007B6107F108031946114800F0DBFD07234E
:100D1C00BB600023FB6000233B6107F1080319460D
:100D2C000C4800F0CFFD4FF2F833BB600123FB60A1
:100D3C0000233B6102237B6107F108031946054838
:100D4C0000F0C0FD00BF1837BD4680BD001002404A
:100D5C0000080140000C014080B582B000AF786003
:100D6C0000F01AFBFFF716FA00BF0837BD4680BD2E
:100D7C0080B400AF72B600BF00BFFDE780B500AF16
:100D8C00944B1B68042B00F2788101A252F823F0DB
:100D9C00B10D0008CB0D00084D0E0008030F000824
:100DAC00B70F00088C4B02221A60FFF7AFFE4FF40E
:100DBC00FA7000F0D5FA874B01221A6066E100F058
:100DCC0073F9864B1B68012B1ED14FF4FA7000F09F
:100DDC00C7FA814B1B68022B0FD1FFF7ABFE804B80
:100DEC001B68013B7E4A13607E4B1B68013B7D4AAE
:100DFC001360794B00221A6001E0FFF787FE764BF7
:100E0C001B680133744A13600020FFF799F90346FD
:100E1C00012B40F034814FF4FA7000F0A1FA724BC0
:100E2C001B68724A13606F4B02221A606E4B1B6870
:100E3C006B4A1360674B02221A6000F005FB1EE13F
:100E4C00664B1B68012B16D14FF4FA7000F088FA30
:100E5C0000F0DCFA604B1B68022B05D1FFF76AFE31
:100E6C005D4B00221A6001E0FFF750FE5A4B1B68E5
:100E7C000133594A13600020FFF762F90346012B36
:100E8C0013D14FF4FA7000F06BFA594B1B68574AA8
:100E9C001360544B03221A60554B1B68504A136065
:100EAC004C4B03221A6000F0CFFA0120FFF748F9EF
:100EBC000346012B0FD14D4B1B68632B02DD4B4BB3
:100ECC0001221A60494B1B680133484A1360474B97
:100EDC001B68434A13600220FFF732F90346012BCB
:100EEC0040F0CF80414B1B683F4A13603E4B1B6860
:100EFC003B4A1360C5E0394B1B68012B16D14FF4EC
:100F0C00FA7000F02DFA00F081FA334B1B68022BBB
:100F1C0005D1FFF70FFE304B00221A6001E0FFF7FE
:100F2C00F5FD2D4B1B6801332B4A13600020FFF796
:100F3C0007F90346012B13D14FF4FA7000F010FAA5
:100F4C002C4B1B68294A1360264B04221A60294B30
:100F5C001B68234A13601F4B04221A6000F074FABA
:100F6C000120FFF7EDF80346012B0FD11F4B1B6837
:100F7C00632B02DD1D4B01221A601C4B1B680133D5
:100F8C001A4A1360194B1B68154A13600220FFF7AD
:100F9C00D7F80346012B76D1144B1B68144A136007
:100FAC00134B1B680E4A13606DE00C4B1B68012B36
:100FBC0029D14FF4FA7000F0D3F900F027FA064B60
:100FCC001B68022B18D1FFF7B5FD034B00221A60EA
:100FDC0014E000BF70000020D4000020E8000020C6
:100FEC00880000208400002080000020D800002011
:100FFC00780000207C000020FFF788FD244B1B6844
:10100C000133234A13600020FFF79AF80346012BA3
:10101C000ED1204B00221A601D4B02221A60FFF7E2
:10102C0075FD4FF4FA7000F09BF91B4B01221A600E
:10103C000120FFF785F80346012B0FD1174B1B68D6
:10104C00632B02DD154B01221A60144B1B68013314
:10105C00124A1360114B1B68114A13600220FFF7F0
:10106C006FF80346012B10D10C4B1B680D4A136013
:10107C000C4B1B680A4A136007E000BF06E000BF78
:10108C0004E000BF02E000BF00E000BF00BF80BD75
:10109C00D40000207400002070000020D800002034
:1010AC00880000207C00002080B500AF4E4B1B68F0
:1010BC00042B00F28E8001A252F823F0DD10000800
:1010CC000F1100083D11000877110008A511000848
:1010DC00464B1B684FF47A7202FB03F3184600F080
:1010EC0023F9434B1B68434A1360404B1B68424A2D
:1010FC00136000F0CDF900F039FA3B4B01221A6075
:10110C0070E03E4B1B68012B65D13D4B1B684FF4C7
:10111C007A7202FB03F3184600F006F900F010FA9D
:10112C00374B1B68344A13602F4B02221A6052E073
:10113C00324B1B68012B50D12C4B1B684FF47A722D
:10114C0002FB03F3184600F0EFF800F0CDF900F0C5
:10115C00E1F9264B1B68274A1360254B1B68264A6E
:10116C001360214B03221A6037E0244B1B68012BC0
:10117C0035D1234B1B684FF47A7202FB03F31846EC
:10118C0000F0D2F800F09AF91D4B1B68194A136055
:10119C00154B04221A6022E0184B1B68012B20D13E
:1011AC00124B1B684FF47A7202FB03F3184600F0E3
:1011BC00BBF800F06DF900F0D9F90D4B1B680D4A26
:1011CC0013600A4B1B680C4A1360074B01221A6010
:1011DC0007E000BF06E000BF04E000BF02E000BF74
:1011EC0000E000BF00BF80BD740000207C00002028
:1011FC00800000208400002088000020E0000020F7
:10120C007800002080B485B000AF154B9B69144A60
:10121C0043F001039361124B9B6903F00103BB6024
:10122C00BB680F4BDB690E4A43F08053D3610C4B08
:10123C00DB6903F080537B607B680A4B5B68FB6067
:10124C00FB6823F0E063FB60FB6843F08063FB60AA
:10125C00044AFB68536000BF1437BD4680BC70471E
:10126C00001002400000014080B584B000AF7860EF
:10127C007B681B68B3F1804F13D10C4BDB690B4AB5
:10128C0043F00103D361094BDB6903F00103FB60FD
:10129C00FB68002200211C2000F0DDFA1C2000F06D
:1012AC00F6FA00BF1037BD4680BD00BF00100240EB
:1012BC0080B400AF00BFFDE780B400AF00BFFDE716
:1012CC0080B400AF00BFFDE780B400AF00BFFDE706
:1012DC0080B400AF00BFFDE780B400AF00BFBD46D7
:1012EC0080BC704780B400AF00BFBD4680BC704767
:1012FC0080B400AF00BFBD4680BC704780B500AF66
:10130C0000F0B6F900BF80BD80B500AF024801F017
:10131C0017F900BF80BD00BF8C00002080B400AF67
:10132C0000BFBD4680BC704780B483B000AF78600E
:10133C007B68084A82FB03129210DB17D31A064A09
:10134C001360064B00221A6000BF0C37BD4680BCF0
:10135C00704700BF67666666DC000020E000002076
:10136C0080B483B000AF78607B68084A82FB0312BC
:10137C009210DB17D31A064A1360064B00221A6030
:10138C0000BF0C37BD4680BC704700BF6766666601
:10139C00E4000020E800002080B400AF154B1B686F
:1013AC00002B05DD134B1B68013B124A136002E056
:1013BC00114B01221A60114B1B68002B05DD0F4BE2
:1013CC001B68013B0D4A136002E00D4B01221A60B1
:1013DC000C4B1B68002B05DD0A4B1B68013B094AB3
:1013EC00136002E0084B01221A6000BFBD4680BCAE
:1013FC00704700BFDC000020E0000020E40000206B
:10140C00E8000020EC000020F000002080B500AFC8
:10141C0001210C4800F001FC02210A4800F0FDFB00
:10142C000421084800F0F9FB0821064800F0F5FB00
:10143C001021044800F0F1FB2021024800F0EDFBE4
:10144C0000BF80BD0008014080B500AF0122012122
:10145C000E4800F0CAFB012202210C4800F0C5FB2B
:10146C0001220421094800F0C0FB01220821074891
:10147C0000F0BBFB01221021044800F0B6FB012256
:10148C002021024800F0B1FB00BF80BD00080140E4
:10149C0080B500AF00220121074800F0A6FB012215
:1014AC000221054800F0A1FB01220421024800F0B2
:1014BC009CFB00BF80BD00BF0008014080B500AFA1
:1014CC0001220121074800F090FB0022022105486F
:1014DC0000F08BFB01220421024800F086FB00BFC8
:1014EC0080BD00BF0008014080B500AF0122012182
:1014FC00074800F07AFB01220221054800F075FB39
:10150C0000220421024800F070FB00BF80BD00BF28
:10151C000008014080B500AF00220821074800F008
:10152C0064FB01221021054800F05FFB0122202101
:10153C00024800F05AFB00BF80BD00BF000801400C
:10154C0080B500AF01220821074800F04EFB0022B5
:10155C001021054800F049FB01222021024800F02F
:10156C0044FB00BF80BD00BF0008014080B500AF48
:10157C0001220821074800F038FB01221021054800
:10158C0000F033FB00222021024800F02EFB00BFAC
:10159C0080BD00BF00080140FFF7C0FE0B480C499E
:1015AC000C4A002302E0D458C4500433C4188C42B3
:1015BC00F9D3094A094C002301E013600432A2421A
:1015CC00FBD301F005FBFFF7C9FA704700000020C0
:1015DC003C000020682C00083C000020F800002093
:1015EC00FEE7000080B500AF084B1B68074A43F0CC
:1015FC0010031360032000F023F90F2000F008F80B
:10160C00FFF700FE0023184680BD00BF00200240FB
:10161C0080B582B000AF7860124B1A68124B1B7801
:10162C0019464FF47A73B3FBF1F3B2FBF3F318469C
:10163C0000F03BF90346002B01D001230EE07B6840
:10164C000F2B0AD8002279684FF0FF3000F003F915
:10165C00064A7B681360002300E001231846083714
:10166C00BD4680BD30000020380000203400002032
:10167C0080B400AF054B1B781A46054B1B6813440E
:10168C00034A136000BFBD4680BC70473800002081
:10169C00F400002080B400AF024B1B681846BD4616
:1016AC0080BC7047F400002080B485B000AF786037
:1016BC007B6803F00703FB600C4BDB68BB60BA680C
:1016CC004FF6FF031340BB60FB681A02BB68134361
:1016DC0043F0BF6343F40033BB60044ABB68D36080
:1016EC0000BF1437BD4680BC704700BF00ED00E062
:1016FC0080B400AF044BDB681B0A03F007031846E9
:10170C00BD4680BC704700BF00ED00E080B483B0E4
:10171C0000AF0346FB7197F90730002B0BDBFB790D
:10172C0003F01F02064997F907305B09012000FA04
:10173C0002F241F8232000BF0C37BD4680BC704735
:10174C0000E100E080B483B000AF03463960FB7168
:10175C0097F90730002B0ADB3B68DAB20C4997F992
:10176C0007301201D2B20B4483F800230AE03B6825
:10177C00DAB20849FB7903F00F03043B1201D2B231
:10178C000B441A7600BF0C37BD4680BC704700BFB7
:10179C0000E100E000ED00E080B489B000AFF8603B
:1017AC00B9607A60FB6803F00703FB61FB69C3F166
:1017BC000703042B28BF0423BB61FB690433062BEE
:1017CC0002D9FB69033B00E000237B614FF0FF3241
:1017DC00BB6902FA03F3DA43BB681A407B699A408F
:1017EC004FF0FF317B6901FA03F3D9437B680B405F
:1017FC00134318462437BD4680BC704780B582B071
:10180C0000AF78607B68013BB3F1807F01D301238B
:10181C000FE00A4A7B68013B53600F214FF0FF3009
:10182C00FFF790FF054B00229A60044B07221A60C9
:10183C00002318460837BD4680BD00BF10E000E00D
:10184C0080B582B000AF78607868FFF72DFF00BFDD
:10185C000837BD4680BD80B586B000AF0346B96081
:10186C007A60FB7300237B61FFF742FF78617A6833
:10187C00B9687869FFF790FF024697F90F30114667
:10188C001846FFF75FFF00BF1837BD4680BD80B517
:10189C0082B000AF0346FB7197F907301846FFF78B
:1018AC0035FF00BF0837BD4680BD80B582B000AFA4
:1018BC0078607868FFF7A2FF034618460837BD46E4
:1018CC0080BD000080B48BB000AF7860396000231D
:1018DC007B6200233B6261E101227B6A02FA03F323
:1018EC00FB613B681B68FA691340BB61BA69FB6911
:1018FC009A4240F050813B685B68974A93425ED0B5
:10190C00954A934275D8954A934258D0934A93423C
:10191C006FD8934A934252D0914A934269D8914AD4
:10192C0093424CD08F4A934263D88F4A934246D00D
:10193C008D4A93425DD8122B2AD8122B59D801A26A
:10194C0052F823F0CB190008A5190008B7190008A4
:10195C00F9190008FF190008FF190008FF19000801
:10196C00FF190008FF190008FF190008FF190008EB
:10197C00FF190008FF190008FF190008FF190008DB
:10198C00FF190008FF190008AD190008C11900085B
:10199C00764A934213D02CE03B68DB683B6229E02B
:1019AC003B68DB6804333B6224E03B68DB6808334C
:1019BC003B621FE03B68DB680C333B621AE03B6820
:1019CC009B68002B02D104233B6213E03B689B68AD
:1019DC00012B05D108233B627B68FA691A6109E087
:1019EC0008233B627B68FA695A6103E000233B627F
:1019FC0000E000BFBB69FF2B01D87B6801E07B686E
:101A0C0004337B61BB69FF2B02D87B6A9B0002E02D
:101A1C007B6A083B9B003B617B691A680F213B6921
:101A2C0001FA03F3DB431A40396A3B6901FA03F309
:101A3C001A437B691A603B685B6803F08053002B88
:101A4C0000F0A9804A4B9B69494A43F0010393611A
:101A5C00474B9B6903F00103BB60BB68454A7B6A3B
:101A6C009B08023352F82330FB607B6A03F00303BC
:101A7C009B000F2202FA03F3DB43FA681340FB606E
:101A8C007B683D4A93420DD07B683C4A934207D019
:101A9C007B683B4A934201D1022304E0032302E01A
:101AAC00012300E000237A6A02F0030292009340C3
:101ABC00FA681343FB602F497B6A9B080233FA6870
:101ACC0041F823203B685B6803F48013002B06D09D
:101ADC002C4B9A682B49BB6913438B6006E0294B4E
:101AEC009A68BB69DB43274913408B603B685B6892
:101AFC0003F40013002B06D0224BDA682149BB6992
:101B0C001343CB6006E01F4BDA68BB69DB431D490E
:101B1C001340CB603B685B6803F40033002B06D0AA
:101B2C00184B5A681749BB6913434B6006E0154BB9
:101B3C005A68BB69DB43134913404B603B685B68D5
:101B4C0003F48033002B1FD00E4B1A680D49BB6970
:101B5C0013430B601FE000BF000032100000311077
:101B6C0000002210000021100000121000001110C3
:101B7C00001002400000014000080140000C014030
:101B8C0000100140000401400B4B1A68BB69DB4399
:101B9C00094913400B607B6A01337B623B681A680E
:101BAC007B6A22FA03F3002B7FF496AE00BF00BFD2
:101BBC002C37BD4680BC70470004014080B485B012
:101BCC0000AF78600B467B807B689A687B881340FB
:101BDC00002B02D00123FB7301E00023FB73FB7B82
:101BEC0018461437BD4680BC704780B483B000AF34
:101BFC0078600B467B8013467B707B78002B03D080
:101C0C007A887B681A6103E07B881A047B681A6106
:101C1C0000BF0C37BD4680BC704780B485B000AFA8
:101C2C0078600B467B807B68DB68FB607A88FB689E
:101C3C0013401A04FB68D9437B880B401A437B681A
:101C4C001A6100BF1437BD4680BC704780B586B0A2
:101C5C0000AF78607B68002B01D1012372E27B68B6
:101C6C001B6803F00103002B00F08780924B5B682C
:101C7C0003F00C03042B0CD08F4B5B6803F00C03AC
:101C8C00082B12D18C4B5B6803F48033B3F5803F87
:101C9C000BD1894B1B6803F40033002B6CD07B6891
:101CAC005B68002B68D101234CE27B685B68B3F561
:101CBC00803F06D1804B1B687F4A43F4803313600E
:101CCC002EE07B685B68002B0CD17B4B1B687A4A3F
:101CDC0023F480331360784B1B68774A23F48023FA
:101CEC0013601DE07B685B68B3F5A02F0CD1724BC1
:101CFC001B68714A43F4802313606F4B1B686E4A58
:101D0C0043F4803313600BE06B4B1B686A4A23F47B
:101D1C0080331360684B1B68674A23F4802313607D
:101D2C007B685B68002B13D0FFF7B4FC386108E0CC
:101D3C00FFF7B0FC02463B69D31A642B01D903238D
:101D4C0000E25D4B1B6803F40033002BF0D014E071
:101D5C00FFF7A0FC386108E0FFF79CFC02463B69EA
:101D6C00D31A642B01D90323ECE1534B1B6803F406
:101D7C000033002BF0D100E000BF7B681B6803F040
:101D8C000203002B63D04C4B5B6803F00C03002B5D
:101D9C000BD0494B5B6803F00C03082B1CD1464B52
:101DAC005B6803F48033002B16D1434B1B6803F0A4
:101DBC000203002B05D07B681B69012B01D001238A
:101DCC00C0E13D4B1B6823F0F8027B685B69DB00CC
:101DDC00394913430B603AE07B681B69002B20D018
:101DEC00364B01221A60FFF755FC386108E0FFF70B
:101DFC0051FC02463B69D31A022B01D90323A1E102
:101E0C002D4B1B6803F00203002BF0D02A4B1B68F0
:101E1C0023F0F8027B685B69DB00274913430B60F6
:101E2C0015E0264B00221A60FFF734FC386108E0FD
:101E3C00FFF730FC02463B69D31A022B01D903236E
:101E4C0080E11D4B1B6803F00203002BF0D17B6873
:101E5C001B6803F00803002B3AD07B689B69002BAE
:101E6C0019D0174B01221A60FFF714FC386108E0F7
:101E7C00FFF710FC02463B69D31A022B01D903234E
:101E8C0060E10D4B5B6A03F00203002BF0D00120E4
:101E9C0000F09CFA1CE00A4B00221A60FFF7FAFBD8
:101EAC0038610FE0FFF7F6FB02463B69D31A022BB1
:101EBC0008D9032346E100BF001002400000424253
:101ECC0080044242924B5B6A03F00203002BE9D17F
:101EDC007B681B6803F00403002B00F0A680002332
:101EEC00FB758B4BDB6903F08053002B0DD1884BBA
:101EFC00DB69874A43F08053D361854BDB6903F080
:101F0C008053BB60BB680123FB75824B1B6803F4D9
:101F1C008073002B18D17F4B1B687E4A43F480736F
:101F2C001360FFF7B7FB386108E0FFF7B3FB02461D
:101F3C003B69D31A642B01D9032303E1754B1B684E
:101F4C0003F48073002BF0D07B68DB68012B06D187
:101F5C006F4B1B6A6E4A43F0010313622DE07B68E2
:101F6C00DB68002B0CD16A4B1B6A694A23F0010316
:101F7C001362674B1B6A664A23F0040313621CE06E
:101F8C007B68DB68052B0CD1614B1B6A604A43F004
:101F9C00040313625E4B1B6A5D4A43F00103136238
:101FAC000BE05B4B1B6A5A4A23F001031362584B3C
:101FBC001B6A574A23F0040313627B68DB68002B0F
:101FCC0015D0FFF767FB38610AE0FFF763FB0246A9
:101FDC003B69D31A41F28832934201D90323B1E011
:101FEC004B4B1B6A03F00203002BEED014E0FFF7FF
:101FFC0051FB38610AE0FFF74DFB02463B69D31AEF
:10200C0041F28832934201D903239BE0404B1B6A77
:10201C0003F00203002BEED1FB7D012B05D13C4BD1
:10202C00DB693B4A23F08053D3617B68DB69002B6F
:10203C0000F08780364B5B6803F00C03082B61D0F3
:10204C007B68DB69022B46D1334B00221A60FFF709
:10205C0021FB386108E0FFF71DFB02463B69D31AF0
:10206C00022B01D903236DE0294B1B6803F000738D
:10207C00002BF0D17B681B6AB3F5803F08D1244B51
:10208C005B6823F400327B689B68214913434B60E7
:10209C001F4B5B6823F474127B68196A7B685B6A5C
:1020AC000B431B4913434B601B4B01221A60FFF778
:1020BC00F1FA386108E0FFF7EDFA02463B69D31AF2
:1020CC00022B01D903233DE0114B1B6803F0007375
:1020DC00002BF0D035E0104B00221A60FFF7DAFA33
:1020EC00386108E0FFF7D6FA02463B69D31A022B97
:1020FC0001D9032326E0064B1B6803F00073002B69
:10210C00F0D11EE07B68DB69012B07D1012319E0BC
:10211C000010024000700040600042420B4B5B68B4
:10212C00FB60FB6803F480327B681B6A9A4206D121
:10213C00FB6803F470127B685B6A9A4201D001233E
:10214C0000E0002318461837BD4680BD0010024041
:10215C0080B584B000AF786039607B68002B01D10A
:10216C000123D0E06A4B1B6803F007033A689A42DC
:10217C0010D9674B1B6823F0070265493B68134372
:10218C000B60634B1B6803F007033A689A4201D05B
:10219C000123B8E07B681B6803F00203002B20D0FE
:1021AC007B681B6803F00403002B05D0594B5B685C
:1021BC00584A43F4E06353607B681B6803F00803E0
:1021CC00002B05D0534B5B68524A43F46053536069
:1021DC00504B5B6823F0F0027B689B684D491343BE
:1021EC004B607B681B6803F00103002B40D07B68BD
:1021FC005B68012B07D1474B1B6803F40033002BA2
:10220C0015D101237FE07B685B68022B07D1414B22
:10221C001B6803F00073002B09D1012373E03D4BC5
:10222C001B6803F00203002B01D101236BE0394B37
:10223C005B6823F003027B685B68364913434B6091
:10224C00FFF728FAF8600AE0FFF724FA0246FB6869
:10225C00D31A41F28832934201D9032353E02D4B18
:10226C005B6803F00C027B685B689B009A42EBD1C5
:10227C00274B1B6803F007033A689A4210D2244B91
:10228C001B6823F0070222493B6813430B60204B69
:10229C001B6803F007033A689A4201D0012332E02D
:1022AC007B681B6803F00403002B08D0194B5B6898
:1022BC0023F4E0627B68DB68164913434B607B6850
:1022CC001B6803F00803002B09D0124B5B6823F446
:1022DC0060527B681B69DB000E4913434B6000F0B6
:1022EC0021F802460B4B5B681B0903F00F030A49EC
:1022FC00CB5C22FA03F3094A1360094B1B6818469E
:10230C00FFF786F9002318461037BD4680BD00BF85
:10231C0000200240001002403C2C0008300000203D
:10232C003400002080B487B000AF0023FB60002392
:10233C00BB6000237B6100237B6000233B611E4B51
:10234C005B68FB60FB6803F00C03042B02D0082BCA
:10235C0003D027E0194B3B6127E0FB689B0C03F093
:10236C000F03174AD35C7B60FB6803F48033002BAC
:10237C0010D0114B5B685B0C03F00103114AD35C6A
:10238C00BB607B680D4A03FB02F2BB68B2FBF3F344
:10239C007B6104E07B680C4A02FB03F37B617B6985
:1023AC003B6102E0054B3B6100BF3B6918461C37A3
:1023BC00BD4680BC704700BF0010024000127A007E
:1023CC004C2C00085C2C000800093D0080B485B042
:1023DC0000AF78600A4B1B680A4AA2FB03235B0A16
:1023EC007A6802FB03F3FB6000BFFB685A1EFA60BD
:1023FC00002BF9D100BF00BF1437BD4680BC70471D
:10240C0030000020D34D621080B582B000AF7860F0
:10241C007B68002B01D1012341E07B6893F83D30B0
:10242C00DBB2002B06D17B68002283F83C20786855
:10243C00FEF71AFF7B68022283F83D207B681A683E
:10244C007B6804331946104600F056FA7B6801226B
:10245C0083F846207B68012283F83E207B680122AA
:10246C0083F83F207B68012283F840207B6801229F
:10247C0083F841207B68012283F842207B6801228B
:10248C0083F843207B68012283F844207B68012277
:10249C0083F845207B68012283F83D2000231846F1
:1024AC000837BD4680BD000080B485B000AF7860B1
:1024BC007B6893F83D30DBB2012B01D0012335E072
:1024CC007B68022283F83D207B681B68DA687B6896
:1024DC001B6842F00102DA607B681B68164A934263
:1024EC0009D07B681B68B3F1804F04D07B681B68F4
:1024FC00124A934211D17B681B689B6803F0070357
:10250C00FB60FB68062B10D07B681B681A687B6825
:10251C001B6842F001021A6007E07B681B681A68AE
:10252C007B681B6842F001021A60002318461437BE
:10253C00BD4680BC704700BF002C01400004004029
:10254C0080B584B000AF78607B681B68DB68FB608B
:10255C007B681B681B69BB60BB6803F00203002B24
:10256C0020D0FB6803F00203002B1BD07B681B6898
:10257C006FF002021A617B6801221A777B681B6874
:10258C009B6903F00303002B03D0786800F098F9E3
:10259C0005E0786800F08BF9786800F09AF97B68B0
:1025AC0000221A77BB6803F00403002B20D0FB68D1
:1025BC0003F00403002B1BD07B681B686FF0040234
:1025CC001A617B6802221A777B681B689B6903F48B
:1025DC004073002B03D0786800F072F905E078683E
:1025EC0000F065F9786800F074F97B6800221A77BE
:1025FC00BB6803F00803002B20D0FB6803F0080332
:10260C00002B1BD07B681B686FF008021A617B687B
:10261C0004221A777B681B68DB6903F00303002B29
:10262C0003D0786800F04CF905E0786800F03FF9C9
:10263C00786800F04EF97B6800221A77BB6803F0CB
:10264C001003002B20D0FB6803F01003002B1BD0D1
:10265C007B681B686FF010021A617B6808221A777E
:10266C007B681B68DB6903F44073002B03D078682C
:10267C0000F026F905E0786800F019F9786800F0A8
:10268C0028F97B6800221A77BB6803F00103002B42
:10269C000CD0FB6803F00103002B07D07B681B6890
:1026AC006FF001021A617868FEF756FBBB6803F005
:1026BC008003002B0CD0FB6803F08003002B07D0A9
:1026CC007B681B686FF080021A61786800F06FFA03
:1026DC00BB6803F04003002B0CD0FB6803F04003F5
:1026EC00002B07D07B681B686FF040021A6178687A
:1026FC0000F0F8F8BB6803F02003002B0CD0FB684B
:10270C0003F02003002B07D07B681B686FF02002BE
:10271C001A61786800F042FA00BF1037BD4680BDE0
:10272C0080B584B000AF786039600023FB737B68A0
:10273C0093F83C30012B01D10223B4E07B680122D9
:10274C0083F83C207B68022283F83D207B681B6861
:10275C009B68BB60BB6823F07703BB60BB6823F44A
:10276C007F43BB607B681B68BA689A603B681B68D8
:10277C00B3F5005F3ED0B3F5005F00F28780B3F590
:10278C00805F00F08680B3F5805F7FD8702B1AD005
:10279C00702B7BD8602B50D0602B77D8502B3CD033
:1027AC00502B73D8402B58D0402B6FD8302B64D083
:1027BC00302B6BD8202B60D0202B67D8002B5CD013
:1027CC00102B5AD062E07B6818683B6899683B68AC
:1027DC005A683B68DB6800F06AF97B681B689B6889
:1027EC00BB60BB6843F07703BB607B681B68BA684F
:1027FC009A604FE07B6818683B6899683B685A6838
:10280C003B68DB6800F053F97B681B689A687B684F
:10281C001B6842F480429A603CE07B6818683B6815
:10282C0059683B68DB681A4600F0CAF87B681B687D
:10283C005021184600F021F92CE07B6818683B68A1
:10284C0059683B68DB681A4600F0E8F87B681B683F
:10285C006021184600F011F91CE07B6818683B6891
:10286C0059683B68DB681A4600F0AAF87B681B685D
:10287C004021184600F001F90CE07B681A683B68AF
:10288C001B681946104600F0F8F803E00123FB73AF
:10289C0000E000BF7B68012283F83D207B680022AA
:1028AC0083F83C20FB7B18461037BD4680BD80B4B6
:1028BC0083B000AF786000BF0C37BD4680BC70475A
:1028CC0080B483B000AF786000BF0C37BD4680BCCD
:1028DC00704780B483B000AF786000BF0C37BD4642
:1028EC0080BC704780B483B000AF786000BF0C37F9
:1028FC00BD4680BC7047000080B485B000AF7860E6
:10290C0039607B681B68FB607B682B4A934207D05D
:10291C007B68B3F1804F03D07B68284A934208D17F
:10292C00FB6823F07003FB603B685B68FA68134339
:10293C00FB607B68204A934207D07B68B3F1804FE1
:10294C0003D07B681D4A934208D1FB6823F4407383
:10295C00FB603B68DB68FA681343FB60FB6823F0A1
:10296C0080023B685B691343FB607B68FA681A6002
:10297C003B689A687B68DA623B681A687B689A6283
:10298C007B680D4A934203D13B681A697B681A63D2
:10299C007B6801225A617B681B6903F00103002BE1
:1029AC0005D07B681B6923F001027B681A6100BFAC
:1029BC001437BD4680BC7047002C01400004004019
:1029CC0080B487B000AFF860B9607A60FB681B6AAE
:1029DC007B61FB681B6A23F00102FB681A62FB68CF
:1029EC009B693B613B6923F0F0033B617B681B01F6
:1029FC003A6913433B617B6923F00A037B617A6973
:102A0C00BB6813437B61FB683A699A61FB687A691E
:102A1C001A6200BF1C37BD4680BC704780B487B0BB
:102A2C0000AFF860B9607A60FB681B6A7B61FB6879
:102A3C001B6A23F01002FB681A62FB689B693B61FE
:102A4C003B6923F470433B617B681B033A69134376
:102A5C003B617B6923F0A0037B61BB681B017A6936
:102A6C0013437B61FB683A699A61FB687A691A6265
:102A7C0000BF1C37BD4680BC704780B485B000AF2A
:102A8C00786039607B689B68FB60FB6823F070039F
:102A9C00FB603A68FB68134343F00703FB607B68F9
:102AAC00FA689A6000BF1437BD4680BC704780B48A
:102ABC0087B000AFF860B9607A603B60FB689B68D8
:102ACC007B617B6923F47F437B613B681A027B68E3
:102ADC001A43BB6813437A6913437B61FB687A69B9
:102AEC009A6000BF1C37BD4680BC704780B485B06F
:102AFC0000AF786039607B6893F83C30012B01D1D2
:102B0C00022341E07B68012283F83C207B6802228F
:102B1C0083F83D207B681B685B68FB607B681B68E7
:102B2C009B68BB60FB6823F07003FB603B681B6811
:102B3C00FA681343FB607B681B68FA685A607B6811
:102B4C001B68144A934209D07B681B68B3F1804F11
:102B5C0004D07B681B68104A93420CD1BB6823F0ED
:102B6C008003BB603B685B68BA681343BB607B68DF
:102B7C001B68BA689A607B68012283F83D207B68E9
:102B8C00002283F83C20002318461437BD4680BC35
:102B9C00704700BF002C01400004004080B483B09B
:102BAC0000AF786000BF0C37BD4680BC704780B466
:102BBC0083B000AF786000BF0C37BD4680BC704757
:102BCC0003460244934200D1704703F8011BF9E716
:102BDC0070B500260C4D0D4C641BA410A64209D1F7
:102BEC0000F01AF800260A4D0A4C641BA410A642E9
:102BFC0005D170BD55F8043B98470136EEE755F802
:102C0C00043B98470136F2E7602C0008602C000862
:102C1C00602C0008642C0008F8B500BFF8BC08BC98
:102C2C009E467047F8B500BFF8BC08BC9E4670477E
:102C3C000000000000000000010203040607080960
:102C4C0002030405060708090A0B0C0D0E0F1010E1
:042C5C000102000071
:042C60003101000836
:042C64000D01000856
:102C6800010000000000000000000000010000005A
:102C7800000000000000000001000000000000004B
:102C8800000000000100000000000000000000003B
:0C2C980000127A00100000000100000093
:04000005080015A535
:00000001FF
